{
  "contractName": "Offseth",
  "abi": [
    {
      "inputs": [
        {
          "internalType": "contract OffsToken",
          "name": "_offsTokenContract",
          "type": "address"
        }
      ],
      "stateMutability": "nonpayable",
      "type": "constructor"
    },
    {
      "anonymous": false,
      "inputs": [
        {
          "indexed": true,
          "internalType": "address",
          "name": "_user",
          "type": "address"
        },
        {
          "indexed": false,
          "internalType": "uint256",
          "name": "_amount",
          "type": "uint256"
        }
      ],
      "name": "Deposit",
      "type": "event"
    },
    {
      "anonymous": false,
      "inputs": [
        {
          "indexed": true,
          "internalType": "address",
          "name": "_user",
          "type": "address"
        },
        {
          "indexed": false,
          "internalType": "uint256",
          "name": "_amount",
          "type": "uint256"
        }
      ],
      "name": "Sell",
      "type": "event"
    },
    {
      "anonymous": false,
      "inputs": [
        {
          "indexed": true,
          "internalType": "address",
          "name": "_user",
          "type": "address"
        },
        {
          "indexed": false,
          "internalType": "uint256",
          "name": "_amount",
          "type": "uint256"
        }
      ],
      "name": "TokenSend",
      "type": "event"
    },
    {
      "anonymous": false,
      "inputs": [
        {
          "indexed": true,
          "internalType": "address",
          "name": "_user",
          "type": "address"
        },
        {
          "indexed": false,
          "internalType": "uint256",
          "name": "_amount",
          "type": "uint256"
        }
      ],
      "name": "Withdraw",
      "type": "event"
    },
    {
      "inputs": [],
      "name": "earned",
      "outputs": [
        {
          "internalType": "uint256",
          "name": "",
          "type": "uint256"
        }
      ],
      "stateMutability": "view",
      "type": "function"
    },
    {
      "inputs": [],
      "name": "endRound",
      "outputs": [
        {
          "internalType": "uint256",
          "name": "",
          "type": "uint256"
        }
      ],
      "stateMutability": "view",
      "type": "function"
    },
    {
      "inputs": [],
      "name": "offsTokenContract",
      "outputs": [
        {
          "internalType": "contract OffsToken",
          "name": "",
          "type": "address"
        }
      ],
      "stateMutability": "view",
      "type": "function"
    },
    {
      "inputs": [],
      "name": "owner",
      "outputs": [
        {
          "internalType": "address",
          "name": "",
          "type": "address"
        }
      ],
      "stateMutability": "view",
      "type": "function"
    },
    {
      "inputs": [],
      "name": "roundNum",
      "outputs": [
        {
          "internalType": "uint256",
          "name": "",
          "type": "uint256"
        }
      ],
      "stateMutability": "view",
      "type": "function"
    },
    {
      "inputs": [
        {
          "internalType": "address",
          "name": "",
          "type": "address"
        }
      ],
      "name": "stakes",
      "outputs": [
        {
          "internalType": "uint256",
          "name": "amount",
          "type": "uint256"
        },
        {
          "internalType": "uint256",
          "name": "current_reward",
          "type": "uint256"
        },
        {
          "internalType": "uint256",
          "name": "date_deposited",
          "type": "uint256"
        },
        {
          "internalType": "uint256",
          "name": "total_earned",
          "type": "uint256"
        },
        {
          "internalType": "uint256",
          "name": "last_earned_date",
          "type": "uint256"
        },
        {
          "internalType": "bool",
          "name": "isMember",
          "type": "bool"
        }
      ],
      "stateMutability": "view",
      "type": "function"
    },
    {
      "inputs": [],
      "name": "startRound",
      "outputs": [
        {
          "internalType": "uint256",
          "name": "",
          "type": "uint256"
        }
      ],
      "stateMutability": "view",
      "type": "function"
    },
    {
      "inputs": [],
      "name": "totalDeposit",
      "outputs": [
        {
          "internalType": "uint256",
          "name": "",
          "type": "uint256"
        }
      ],
      "stateMutability": "view",
      "type": "function"
    },
    {
      "inputs": [],
      "name": "totalEarned",
      "outputs": [
        {
          "internalType": "uint256",
          "name": "",
          "type": "uint256"
        }
      ],
      "stateMutability": "view",
      "type": "function"
    },
    {
      "inputs": [
        {
          "internalType": "uint256",
          "name": "",
          "type": "uint256"
        }
      ],
      "name": "userList",
      "outputs": [
        {
          "internalType": "address",
          "name": "",
          "type": "address"
        }
      ],
      "stateMutability": "view",
      "type": "function"
    },
    {
      "inputs": [],
      "name": "executeStartRound",
      "outputs": [],
      "stateMutability": "nonpayable",
      "type": "function"
    },
    {
      "inputs": [],
      "name": "deposit",
      "outputs": [],
      "stateMutability": "payable",
      "type": "function"
    },
    {
      "inputs": [
        {
          "internalType": "uint256",
          "name": "_amount",
          "type": "uint256"
        }
      ],
      "name": "withdraw",
      "outputs": [],
      "stateMutability": "nonpayable",
      "type": "function"
    },
    {
      "inputs": [
        {
          "internalType": "uint256",
          "name": "_amount",
          "type": "uint256"
        }
      ],
      "name": "withdrawRewards",
      "outputs": [],
      "stateMutability": "nonpayable",
      "type": "function"
    },
    {
      "inputs": [
        {
          "internalType": "uint256",
          "name": "_numberOfTokens",
          "type": "uint256"
        }
      ],
      "name": "buyTokens",
      "outputs": [],
      "stateMutability": "payable",
      "type": "function"
    },
    {
      "inputs": [
        {
          "internalType": "address",
          "name": "_addr",
          "type": "address"
        }
      ],
      "name": "isMember",
      "outputs": [
        {
          "internalType": "bool",
          "name": "",
          "type": "bool"
        }
      ],
      "stateMutability": "view",
      "type": "function"
    },
    {
      "inputs": [
        {
          "internalType": "uint256",
          "name": "_newDaiPerToken",
          "type": "uint256"
        }
      ],
      "name": "updateTokensPerDay",
      "outputs": [],
      "stateMutability": "nonpayable",
      "type": "function"
    }
  ],
  "bytecode": "0x6080604052737d2768de32b0b80b7a3454c06bdac94a69ddc7a96000806101000a81548173ffffffffffffffffffffffffffffffffffffffff021916908373ffffffffffffffffffffffffffffffffffffffff160217905550736b175474e89094c44da98b954eedeac495271d0f600160006101000a81548173ffffffffffffffffffffffffffffffffffffffff021916908373ffffffffffffffffffffffffffffffffffffffff16021790555073028171bca77440897b824ca71d1c56cac55b68a3600260006101000a81548173ffffffffffffffffffffffffffffffffffffffff021916908373ffffffffffffffffffffffffffffffffffffffff160217905550600f60035534801561011357600080fd5b506040516122623803806122628339818101604052602081101561013657600080fd5b810190808051906020019092919050505033600560006101000a81548173ffffffffffffffffffffffffffffffffffffffff021916908373ffffffffffffffffffffffffffffffffffffffff16021790555080600460006101000a81548173ffffffffffffffffffffffffffffffffffffffff021916908373ffffffffffffffffffffffffffffffffffffffff16021790555060006006819055506000600a8190555060016009819055504260078190555062278d0042016008819055505061205e806102046000396000f3fe6080604052600436106100fe5760003560e01c806378e55bc411610095578063a230c52411610064578063a230c524146103db578063aab404e014610442578063d0e30db01461047d578063d6f1926214610487578063f6153ccd146104b2576100fe565b806378e55bc4146102b95780638da5cb5b146102fa5780639342c8f41461033b5780639f4216e814610376576100fe565b80633610724e116100d15780633610724e1461020a57806355e3f086146102385780636dfa8d9914610263578063749aa2d91461028e576100fe565b80630d553fc814610103578063119b22b31461011a57806316934fc4146101455780632e1a7d4d146101cf575b600080fd5b34801561010f57600080fd5b506101186104dd565b005b34801561012657600080fd5b5061012f61064d565b6040518082815260200191505060405180910390f35b34801561015157600080fd5b506101946004803603602081101561016857600080fd5b81019080803573ffffffffffffffffffffffffffffffffffffffff169060200190929190505050610653565b604051808781526020018681526020018581526020018481526020018381526020018215158152602001965050505050505060405180910390f35b3480156101db57600080fd5b50610208600480360360208110156101f257600080fd5b810190808035906020019092919050505061069c565b005b6102366004803603602081101561022057600080fd5b8101908080359060200190929190505050610b2a565b005b34801561024457600080fd5b5061024d610d42565b6040518082815260200191505060405180910390f35b34801561026f57600080fd5b50610278610d48565b6040518082815260200191505060405180910390f35b34801561029a57600080fd5b506102a3610d4e565b6040518082815260200191505060405180910390f35b3480156102c557600080fd5b506102ce610d54565b604051808273ffffffffffffffffffffffffffffffffffffffff16815260200191505060405180910390f35b34801561030657600080fd5b5061030f610d7a565b604051808273ffffffffffffffffffffffffffffffffffffffff16815260200191505060405180910390f35b34801561034757600080fd5b506103746004803603602081101561035e57600080fd5b8101908080359060200190929190505050610da0565b005b34801561038257600080fd5b506103af6004803603602081101561039957600080fd5b81019080803590602001909291905050506111e1565b604051808273ffffffffffffffffffffffffffffffffffffffff16815260200191505060405180910390f35b3480156103e757600080fd5b5061042a600480360360208110156103fe57600080fd5b81019080803573ffffffffffffffffffffffffffffffffffffffff169060200190929190505050611220565b60405180821515815260200191505060405180910390f35b34801561044e57600080fd5b5061047b6004803603602081101561046557600080fd5b8101908080359060200190929190505050611279565b005b610485611346565b005b34801561049357600080fd5b5061049c611743565b6040518082815260200191505060405180910390f35b3480156104be57600080fd5b506104c7611749565b6040518082815260200191505060405180910390f35b600560009054906101000a900473ffffffffffffffffffffffffffffffffffffffff1673ffffffffffffffffffffffffffffffffffffffff163373ffffffffffffffffffffffffffffffffffffffff16146105a0576040517f08c379a000000000000000000000000000000000000000000000000000000000815260040180806020018281038252600e8152602001807f4f6e6c7920746865206f776e657200000000000000000000000000000000000081525060200191505060405180910390fd5b6008544211610617576040517f08c379a00000000000000000000000000000000000000000000000000000000081526004018080602001828103825260168152602001807f526f756e64206e6f742066696e6973686564207965740000000000000000000081525060200191505060405180910390fd5b61061f61174f565b610627611835565b60016009600082825401925050819055504260078190555062278d004201600881905550565b60095481565b600c6020528060005260406000206000915090508060000154908060010154908060020154908060030154908060040154908060050160009054906101000a900460ff16905086565b6106a533611220565b610717576040517f08c379a00000000000000000000000000000000000000000000000000000000081526004018080602001828103825260098152602001807f4e6f206d656d626572000000000000000000000000000000000000000000000081525060200191505060405180910390fd5b600c60003373ffffffffffffffffffffffffffffffffffffffff1673ffffffffffffffffffffffffffffffffffffffff168152602001908152602001600020600001548111156107cf576040517f08c379a00000000000000000000000000000000000000000000000000000000081526004018080602001828103825260108152602001807f4e6f7420656e6f6768742066756e64730000000000000000000000000000000081525060200191505060405180910390fd5b6107d761174f565b6107e033611960565b61083581600c60003373ffffffffffffffffffffffffffffffffffffffff1673ffffffffffffffffffffffffffffffffffffffff16815260200190815260200160002060000154611dc190919063ffffffff16565b600c60003373ffffffffffffffffffffffffffffffffffffffff1673ffffffffffffffffffffffffffffffffffffffff1681526020019081526020016000206000018190555042600c60003373ffffffffffffffffffffffffffffffffffffffff1673ffffffffffffffffffffffffffffffffffffffff168152602001908152602001600020600201819055506108d781600654611dc190919063ffffffff16565b600681905550600260009054906101000a900473ffffffffffffffffffffffffffffffffffffffff1673ffffffffffffffffffffffffffffffffffffffff1663095ea7b360008054906101000a900473ffffffffffffffffffffffffffffffffffffffff16836040518363ffffffff1660e01b8152600401808373ffffffffffffffffffffffffffffffffffffffff16815260200182815260200192505050602060405180830381600087803b15801561099057600080fd5b505af11580156109a4573d6000803e3d6000fd5b505050506040513d60208110156109ba57600080fd5b81019080805190602001909291905050505060008054906101000a900473ffffffffffffffffffffffffffffffffffffffff1673ffffffffffffffffffffffffffffffffffffffff166369328dec600160009054906101000a900473ffffffffffffffffffffffffffffffffffffffff1683336040518463ffffffff1660e01b8152600401808473ffffffffffffffffffffffffffffffffffffffff1681526020018381526020018273ffffffffffffffffffffffffffffffffffffffff1681526020019350505050602060405180830381600087803b158015610a9d57600080fd5b505af1158015610ab1573d6000803e3d6000fd5b505050506040513d6020811015610ac757600080fd5b8101908080519060200190929190505050503373ffffffffffffffffffffffffffffffffffffffff167f884edad9ce6fa2440d8a54cc123490eb96d2768479d49ff9c7366125a9424364826040518082815260200191505060405180910390a250565b610b3f60035482611e4490919063ffffffff16565b3414610b4a57600080fd5b80600460009054906101000a900473ffffffffffffffffffffffffffffffffffffffff1673ffffffffffffffffffffffffffffffffffffffff166370a08231306040518263ffffffff1660e01b8152600401808273ffffffffffffffffffffffffffffffffffffffff16815260200191505060206040518083038186803b158015610bd457600080fd5b505afa158015610be8573d6000803e3d6000fd5b505050506040513d6020811015610bfe57600080fd5b81019080805190602001909291905050501015610c1a57600080fd5b600460009054906101000a900473ffffffffffffffffffffffffffffffffffffffff1673ffffffffffffffffffffffffffffffffffffffff1663a9059cbb33836040518363ffffffff1660e01b8152600401808373ffffffffffffffffffffffffffffffffffffffff16815260200182815260200192505050602060405180830381600087803b158015610cad57600080fd5b505af1158015610cc1573d6000803e3d6000fd5b505050506040513d6020811015610cd757600080fd5b8101908080519060200190929190505050610cf157600080fd5b3373ffffffffffffffffffffffffffffffffffffffff167f5e5e995ce3133561afceaa51a9a154d5db228cd7525d34df5185582c18d3df09826040518082815260200191505060405180910390a250565b60075481565b600a5481565b60085481565b600460009054906101000a900473ffffffffffffffffffffffffffffffffffffffff1681565b600560009054906101000a900473ffffffffffffffffffffffffffffffffffffffff1681565b610da933611220565b610e1b576040517f08c379a00000000000000000000000000000000000000000000000000000000081526004018080602001828103825260098152602001807f4e6f206d656d626572000000000000000000000000000000000000000000000081525060200191505060405180910390fd5b600c60003373ffffffffffffffffffffffffffffffffffffffff1673ffffffffffffffffffffffffffffffffffffffff16815260200190815260200160002060010154811115610ed3576040517f08c379a00000000000000000000000000000000000000000000000000000000081526004018080602001828103825260138152602001807f4e6f7420656e6f7567687420726577617264730000000000000000000000000081525060200191505060405180910390fd5b610f2881600c60003373ffffffffffffffffffffffffffffffffffffffff1673ffffffffffffffffffffffffffffffffffffffff16815260200190815260200160002060010154611dc190919063ffffffff16565b600c60003373ffffffffffffffffffffffffffffffffffffffff1673ffffffffffffffffffffffffffffffffffffffff168152602001908152602001600020600101819055506000610f8560035483611eca90919063ffffffff16565b905080600460009054906101000a900473ffffffffffffffffffffffffffffffffffffffff1673ffffffffffffffffffffffffffffffffffffffff166370a08231306040518263ffffffff1660e01b8152600401808273ffffffffffffffffffffffffffffffffffffffff16815260200191505060206040518083038186803b15801561101157600080fd5b505afa158015611025573d6000803e3d6000fd5b505050506040513d602081101561103b57600080fd5b810190808051906020019092919050505010156110c0576040517f08c379a00000000000000000000000000000000000000000000000000000000081526004018080602001828103825260178152602001807f4e6f7420656e6f75676874204f66667320546f6b656e7300000000000000000081525060200191505060405180910390fd5b600460009054906101000a900473ffffffffffffffffffffffffffffffffffffffff1673ffffffffffffffffffffffffffffffffffffffff1663a9059cbb33836040518363ffffffff1660e01b8152600401808373ffffffffffffffffffffffffffffffffffffffff16815260200182815260200192505050602060405180830381600087803b15801561115357600080fd5b505af1158015611167573d6000803e3d6000fd5b505050506040513d602081101561117d57600080fd5b8101908080519060200190929190505050503373ffffffffffffffffffffffffffffffffffffffff167f6505bc6f2c547ae2d8438b65f0f5c219f6e97f316f56f369a6b3062638a1fadc826040518082815260200191505060405180910390a25050565b600d81815481106111f157600080fd5b906000526020600020016000915054906101000a900473ffffffffffffffffffffffffffffffffffffffff1681565b6000600c60008373ffffffffffffffffffffffffffffffffffffffff1673ffffffffffffffffffffffffffffffffffffffff16815260200190815260200160002060050160009054906101000a900460ff169050919050565b600560009054906101000a900473ffffffffffffffffffffffffffffffffffffffff1673ffffffffffffffffffffffffffffffffffffffff163373ffffffffffffffffffffffffffffffffffffffff161461133c576040517f08c379a000000000000000000000000000000000000000000000000000000000815260040180806020018281038252600a8152602001807f4f6e6c79204f776e65720000000000000000000000000000000000000000000081525060200191505060405180910390fd5b8060038190555050565b61134e61174f565b61135733611960565b6113ac34600c60003373ffffffffffffffffffffffffffffffffffffffff1673ffffffffffffffffffffffffffffffffffffffff16815260200190815260200160002060000154611f5390919063ffffffff16565b600c60003373ffffffffffffffffffffffffffffffffffffffff1673ffffffffffffffffffffffffffffffffffffffff1681526020019081526020016000206000018190555042600c60003373ffffffffffffffffffffffffffffffffffffffff1673ffffffffffffffffffffffffffffffffffffffff168152602001908152602001600020600201819055506001600c60003373ffffffffffffffffffffffffffffffffffffffff1673ffffffffffffffffffffffffffffffffffffffff16815260200190815260200160002060050160006101000a81548160ff021916908315150217905550600d339080600181540180825580915050600190039060005260206000200160009091909190916101000a81548173ffffffffffffffffffffffffffffffffffffffff021916908373ffffffffffffffffffffffffffffffffffffffff16021790555061150c34600654611f5390919063ffffffff16565b600681905550600160009054906101000a900473ffffffffffffffffffffffffffffffffffffffff1673ffffffffffffffffffffffffffffffffffffffff1663095ea7b360008054906101000a900473ffffffffffffffffffffffffffffffffffffffff16346040518363ffffffff1660e01b8152600401808373ffffffffffffffffffffffffffffffffffffffff16815260200182815260200192505050602060405180830381600087803b1580156115c557600080fd5b505af11580156115d9573d6000803e3d6000fd5b505050506040513d60208110156115ef57600080fd5b81019080805190602001909291905050505060008054906101000a900473ffffffffffffffffffffffffffffffffffffffff1673ffffffffffffffffffffffffffffffffffffffff1663e8eda9df600160009054906101000a900473ffffffffffffffffffffffffffffffffffffffff16343060006040518563ffffffff1660e01b8152600401808573ffffffffffffffffffffffffffffffffffffffff1681526020018481526020018373ffffffffffffffffffffffffffffffffffffffff168152602001828152602001945050505050600060405180830381600087803b1580156116db57600080fd5b505af11580156116ef573d6000803e3d6000fd5b505050503373ffffffffffffffffffffffffffffffffffffffff167fe1fffcc4923d04b559f4d29a8bfc6cda04eb5b0d3c460751c2402c5c5cc9109c346040518082815260200191505060405180910390a2565b600b5481565b60065481565b6000600260009054906101000a900473ffffffffffffffffffffffffffffffffffffffff1673ffffffffffffffffffffffffffffffffffffffff166370a08231306040518263ffffffff1660e01b8152600401808273ffffffffffffffffffffffffffffffffffffffff16815260200191505060206040518083038186803b1580156117da57600080fd5b505afa1580156117ee573d6000803e3d6000fd5b505050506040513d602081101561180457600080fd5b8101908080519060200190929190505050905061182c60065482611dc190919063ffffffff16565b600b8190555050565b600560009054906101000a900473ffffffffffffffffffffffffffffffffffffffff1673ffffffffffffffffffffffffffffffffffffffff163373ffffffffffffffffffffffffffffffffffffffff16146118f8576040517f08c379a000000000000000000000000000000000000000000000000000000000815260040180806020018281038252600a8152602001807f4f6e6c79204f776e65720000000000000000000000000000000000000000000081525060200191505060405180910390fd5b60005b600d8054905081101561195557611948600d828154811061191857fe5b9060005260206000200160009054906101000a900473ffffffffffffffffffffffffffffffffffffffff16611960565b80806001019150506118fb565b5061195e61174f565b565b61196981611220565b6119db576040517f08c379a000000000000000000000000000000000000000000000000000000000815260040180806020018281038252600a8152602001807f4e6f74206d656d6265720000000000000000000000000000000000000000000081525060200191505060405180910390fd5b6000600c60008373ffffffffffffffffffffffffffffffffffffffff1673ffffffffffffffffffffffffffffffffffffffff168152602001908152602001600020600201549050600754811015611a325760075490505b80600c60008473ffffffffffffffffffffffffffffffffffffffff1673ffffffffffffffffffffffffffffffffffffffff168152602001908152602001600020600401541115611ac257600c60008373ffffffffffffffffffffffffffffffffffffffff1673ffffffffffffffffffffffffffffffffffffffff1681526020019081526020016000206004015490505b60006008549050600854421015611ad7574290505b6000611b0162015180611af38585611dc190919063ffffffff16565b611eca90919063ffffffff16565b90506000611b3162015180611b23600754600854611dc190919063ffffffff16565b611eca90919063ffffffff16565b90506000611bc4611b8f600654600c60008a73ffffffffffffffffffffffffffffffffffffffff1673ffffffffffffffffffffffffffffffffffffffff16815260200190815260200160002060000154611eca90919063ffffffff16565b611bb685611ba886600b54611eca90919063ffffffff16565b611e4490919063ffffffff16565b611e4490919063ffffffff16565b9050600a54811115611c21576040517f08c379a000000000000000000000000000000000000000000000000000000000815260040180806020018281038252602c815260200180611ffd602c913960400191505060405180910390fd5b42600c60008873ffffffffffffffffffffffffffffffffffffffff1673ffffffffffffffffffffffffffffffffffffffff16815260200190815260200160002060040181905550611c7d81600a54611f5390919063ffffffff16565b600a81905550611cd881600c60008973ffffffffffffffffffffffffffffffffffffffff1673ffffffffffffffffffffffffffffffffffffffff16815260200190815260200160002060010154611f5390919063ffffffff16565b600c60008873ffffffffffffffffffffffffffffffffffffffff1673ffffffffffffffffffffffffffffffffffffffff16815260200190815260200160002060010181905550611d7381600c60008973ffffffffffffffffffffffffffffffffffffffff1673ffffffffffffffffffffffffffffffffffffffff16815260200190815260200160002060030154611f5390919063ffffffff16565b600c60008873ffffffffffffffffffffffffffffffffffffffff1673ffffffffffffffffffffffffffffffffffffffff16815260200190815260200160002060030181905550505050505050565b600082821115611e39576040517f08c379a000000000000000000000000000000000000000000000000000000000815260040180806020018281038252601e8152602001807f536166654d6174683a207375627472616374696f6e206f766572666c6f77000081525060200191505060405180910390fd5b818303905092915050565b600080831415611e575760009050611ec4565b6000828402905082848281611e6857fe5b0414611ebf576040517f08c379a0000000000000000000000000000000000000000000000000000000008152600401808060200182810382526021815260200180611fdc6021913960400191505060405180910390fd5b809150505b92915050565b6000808211611f41576040517f08c379a000000000000000000000000000000000000000000000000000000000815260040180806020018281038252601a8152602001807f536166654d6174683a206469766973696f6e206279207a65726f00000000000081525060200191505060405180910390fd5b818381611f4a57fe5b04905092915050565b600080828401905083811015611fd1576040517f08c379a000000000000000000000000000000000000000000000000000000000815260040180806020018281038252601b8152602001807f536166654d6174683a206164646974696f6e206f766572666c6f77000000000081525060200191505060405180910390fd5b809150509291505056fe536166654d6174683a206d756c7469706c69636174696f6e206f766572666c6f7752657761726420636f756c64206e6f742062652067726561746572207468616e20746f74616c4561726e6564a26469706673582212206858574056b24aef381a0f4acc42a3fbc4f963b00089f7f6dc73cac8a980dc5864736f6c63430007050033",
  "immutableReferences": {},
  "source": "// SPDX-License-Identifier: MIT\npragma solidity ^0.7.5;\n\nimport \"./IERC20.sol\";\nimport \"./ILendingPool.sol\";\nimport \"./OffsToken.sol\";\nimport \"./SafeMath.sol\";\n\ncontract Offseth {\n\tILendingPool pool = ILendingPool(0x7d2768dE32b0b80b7a3454c06BdAc94A69DDc7A9); //Lending pool contract address\n\tIERC20 dai = IERC20(0x6B175474E89094C44Da98b954EedeAC495271d0F); \t//Dai contract address\n\tIERC20 aDai = IERC20(0x028171bCA77440897B824Ca71D1c56caC55b68A3); \t//aDai contract address\n\n\tusing SafeMath for uint256;\n\t\n\tuint256 daiPerToken = 15; \t\t\t//Number of Dais per each OFFS token\n\tOffsToken public offsTokenContract; //OFFS token contract\n\n\tstruct Stacked {\n\t\tuint256 amount;\n\t\tuint256 current_reward;\n\t\tuint256 date_deposited;\n\t\tuint256 total_earned;\n\t\tuint256 last_earned_date;\n\t\tbool isMember;\n\t}\n\n\taddress public owner;\n\tuint256 public totalDeposit;\n\tuint256 public startRound;\n\tuint256 public endRound;\n\tuint256 public roundNum;\n\tuint256 public totalEarned;\n\tuint256 public earned;\n\n\tmapping(address => Stacked) public stakes;\n\taddress[] public userList;\n\n\t// Events\n    event Deposit(address indexed _user, uint256 _amount);\n    event Withdraw(address indexed _user, uint256 _amount);\n    event TokenSend(address indexed _user, uint256 _amount);\n    event Sell(address indexed _user, uint256 _amount);\n\n\n    /**\n     * Constructor function\n     *\n     * Initializes contract with owner and starts the first round\n     */\n\tconstructor(OffsToken _offsTokenContract) public {\n\t\towner = msg.sender;\n\t\toffsTokenContract = _offsTokenContract;\n\n\t\t//Initiate the params\n\t\ttotalDeposit = 0;\n\t\ttotalEarned = 0;\n\t\troundNum = 1;\n\t\tstartRound = block.timestamp;\n\t\tendRound = block.timestamp + 30 days;\n\t}\n\n\n\t/**\n\t * Start the next round\n\t *\n\t * Allows the owner to start the next round\n\t * Automatically distribute the rewards to all participants\n\t */\n\tfunction executeStartRound() public {\n\t\trequire(msg.sender == owner, \"Only the owner\");\n\t\trequire(block.timestamp > endRound, \"Round not finished yet\");\n\n\t\tcalculateEarned();\n\t\tdistributeRewards();\n\n\t\troundNum += 1;\n\t\tstartRound = block.timestamp;\n\t\tendRound = block.timestamp + 30 days;\n\t}\n\n\n\t/**\n\t * Allows users to deposit their Dai\n\t * \n\t * First updates the user rewards\n\t * Then transfer to the pool on behalf the user\n\t */\n\tfunction deposit() public payable {\n\t\tcalculateEarned();\n\t\tcalculateRewards(msg.sender);\n\t\t\n\t\t// Update the stakes info for user\n\t\tstakes[msg.sender].amount = stakes[msg.sender].amount.add(msg.value);\n\t\tstakes[msg.sender].date_deposited = block.timestamp;\n\t\tstakes[msg.sender].isMember = true;\n\n\t\t// Add the user to the userList\n\t\tuserList.push(msg.sender);\n\n\t\t// Update the totalDiposit of the contract\n\t\ttotalDeposit = totalDeposit.add(msg.value);\n\n\t\t// Aprove & Deposit Dai to Aave Pool\n\t\tdai.approve(address(pool), msg.value);\n\t\tpool.deposit(address(dai), msg.value, address(this), 0);\n\n\t\temit Deposit(msg.sender, msg.value);\n\t}\n\n\n\t/**\n\t * Allows users to withdraw their Dai\n\t * \n\t * First updates the user rewards\n\t * Then transfer to the user the desired amount\n\t */\n\tfunction withdraw(uint256 _amount) public {\n\t\trequire(isMember(msg.sender), \"No member\"); //Is member\n\t\trequire(_amount <= stakes[msg.sender].amount, \"Not enoght funds\"); //Has enought funds\n\n\t\tcalculateEarned();\n\t\tcalculateRewards(msg.sender);\n\n\t\t// Update the stakes info for user\n\t\tstakes[msg.sender].amount = stakes[msg.sender].amount.sub(_amount);\n\t\tstakes[msg.sender].date_deposited = block.timestamp;\n\n\t\t// Update the totalDeposit for the contract\n\t\ttotalDeposit = totalDeposit.sub(_amount);\n\t\t\n\t\t// Approve & Withdraw aDai from Aave Pool\n\t\taDai.approve(address(pool), _amount);\n\t\tpool.withdraw(address(dai), _amount, msg.sender);\n\n\t\temit Withdraw(msg.sender, _amount);\n\t}\n\n\n\t/**\n\t * Allow user to withdraw their Offs rewards\n\t * \n\t * Calculate the num of Offs tokens (based on user rewards and daiPerToken)\n\t * and transfer the amount to the user.\n\t * \n\t * @param _amount The amount of the rewards to withdraw\n\t */\n\tfunction withdrawRewards(uint256 _amount) public {\n\t\trequire(isMember(msg.sender), \"No member\"); //Is member\n\t\trequire(_amount <= stakes[msg.sender].current_reward, \"Not enought rewards\"); //Has enought funds\n\n\t\tstakes[msg.sender].current_reward = stakes[msg.sender].current_reward.sub(_amount);\n\t\tuint256 _numberOfTokens = _amount.div(daiPerToken);\n\n\t\trequire(offsTokenContract.balanceOf(address(this)) >= _numberOfTokens, \"Not enought Offs Tokens\");\n\t\toffsTokenContract.transfer(msg.sender, _numberOfTokens);\n\n\t\temit TokenSend(msg.sender, _numberOfTokens);\n\t}\n\n\n\t/**\n\t * Calculates the number of Dai generated by the AAVE pool interest\n\t * that the user generated in this round and accumulates to the total\n\t *\n\t * @param _user The address of the user to calculate the rewards\n\t */\n\tfunction calculateRewards(address _user) private {\n\t\trequire(isMember(_user), \"Not member\");\n\n\t\t// Get timestamp user deposited\n\t\tuint256 _start = stakes[_user].date_deposited;\n\n\t\t// If it was before the round start, set to round start\n\t\tif(_start < startRound){\n\t\t\t_start = startRound;\n\t\t}\n\n\t\t// If user already earned this round, get that timestamp\n\t\tif(stakes[_user].last_earned_date > _start){\n\t\t\t_start = stakes[_user].last_earned_date;\n\t\t}\n\n\t\t// Get the endRound or if the round is not finished, the block.timestamp timestamp\n\t\tuint256 _end = endRound;\n\t\tif(block.timestamp < endRound){\n\t\t\t_end = block.timestamp;\n\t\t}\n\n\t\t// Days that the user has been in the round\n\t\tuint256 _userDays = ( _end.sub(_start) ).div(86400); // 60*60*24 sec to days\n\n\t\t// The total num of days of the round\n\t\tuint256 _totalDays = ( endRound.sub(startRound) ).div(86400);\n\n\t\t// Set the reward based on percentage of the user deposit and the num of days of deposit\n\t\tuint256 _reward = ( (earned.div(_totalDays)).mul(_userDays) ).mul( stakes[_user].amount.div(totalDeposit) );\n\t\trequire (_reward <= totalEarned, \"Reward could not be greater than totalEarned\");\n\n\t\t// Update rewards stats and user stats\n\t\tstakes[_user].last_earned_date = block.timestamp;\n\t\ttotalEarned = totalEarned.add(_reward);\n\t\tstakes[_user].current_reward = stakes[_user].current_reward.add(_reward);\n\t\tstakes[_user].total_earned = stakes[_user].total_earned.add(_reward);\n\t}\n\n\n\t/**\n\t * Distributes the rewards generated by each user in this round\n\t * Called by the owner when a round ends\n\t * Moves all the generated Dai to the DAO contract to buy CO2 Tokens\n\t */\n\tfunction distributeRewards() private {\n\t\trequire(msg.sender == owner, \"Only Owner\");\n\n\t\t// Foreach user, distribute rewards\n\t\tfor(uint i = 0; i<userList.length; i++) {\n\t\t\tcalculateRewards(userList[i]);\n\t\t}\n\n\t\t// Move all the earnings to the DAO to purchase CO2 offsets with it\n\t\tcalculateEarned();\n\t\t//moveBenefitsToDAO(); << TODO\n\t}\n\n\n\t/**\n\t * Calculate the diference between the users deposits and the AAVE pool\n\t * (the pool earnings in aDai)\n\t */\n\tfunction calculateEarned() private {\n        uint256 _totalBalance = aDai.balanceOf(address(this));\n        earned = (_totalBalance.sub(totalDeposit));\n\t}\n\n\n\t/**\n     * Buy Tokens function\n     *\n     * Allows users to buy tokens\n     */\n    function buyTokens(uint256 _numberOfTokens) public payable {\n        require(msg.value == _numberOfTokens.mul(daiPerToken));\n        require(offsTokenContract.balanceOf(address(this)) >= _numberOfTokens);\n        require(offsTokenContract.transfer(msg.sender, _numberOfTokens));\n\n        emit Sell(msg.sender, _numberOfTokens);\n    }\n\n\n\t/**\n\t * Returns if a user is member of the contract\n\t *\n\t * @param _addr The address of the user\n\t */\n\tfunction isMember(address _addr) public view returns(bool) {\n\t\treturn stakes[_addr].isMember;\n\t}\n\n\n\t/**\n\t * Allows the owner to change the num of tokens per Dai\n\t */\n\tfunction updateTokensPerDay(uint256 _newDaiPerToken) public {\n\t\trequire(msg.sender == owner, \"Only Owner\");\n\t\tdaiPerToken = _newDaiPerToken;\n\t}\n\n}",
  "sourcePath": "/Users/aulet/Sites/greenchain/greenchain/contracts/Offseth.sol",
  "compiler": {
    "name": "solc",
    "version": "0.7.5+commit.eb77ed08.Emscripten.clang"
  },
  "schemaVersion": "3.2.5",
  "updatedAt": "2021-02-04T16:31:33.601Z",
  "devdoc": {
    "kind": "dev",
    "methods": {
      "isMember(address)": {
        "params": {
          "_addr": "The address of the user"
        }
      },
      "withdrawRewards(uint256)": {
        "params": {
          "_amount": "The amount of the rewards to withdraw"
        }
      }
    },
    "version": 1
  },
  "userdoc": {
    "kind": "user",
    "methods": {
      "buyTokens(uint256)": {
        "notice": "Buy Tokens function Allows users to buy tokens"
      },
      "constructor": {
        "notice": "Constructor function Initializes contract with owner and starts the first round"
      },
      "deposit()": {
        "notice": "Allows users to deposit their Dai  First updates the user rewards Then transfer to the pool on behalf the user"
      },
      "executeStartRound()": {
        "notice": "Start the next round Allows the owner to start the next round Automatically distribute the rewards to all participants"
      },
      "isMember(address)": {
        "notice": "Returns if a user is member of the contract"
      },
      "updateTokensPerDay(uint256)": {
        "notice": "Allows the owner to change the num of tokens per Dai"
      },
      "withdraw(uint256)": {
        "notice": "Allows users to withdraw their Dai  First updates the user rewards Then transfer to the user the desired amount"
      },
      "withdrawRewards(uint256)": {
        "notice": "Allow user to withdraw their Offs rewards  Calculate the num of Offs tokens (based on user rewards and daiPerToken) and transfer the amount to the user. "
      }
    },
    "version": 1
  }
}